:100000000C94E1010C9419020C9419020C9419023D
:100010000C9419020C9419020C9419020C941902F4
:100020000C9419020C9419020C94D61C0C94A81D63
:100030000C94CA170C9419020C9419020C9419020E
:100040000C9419020C9419020C9419020C941902C4
:100050000C9419020C9452180C9419020C94190265
:100060000C9419020C9419020C9419020C941902A4
:100070000C9419020C9419020C9419020C94190294
:100080000C9419020C9419020C9419020C94190284
:100090000C9419020C9419020C9419020C94190274
:1000A0000C9419020C9419020C9419024104410495
:1000B0006D046D04D504F3040B060B06FE049705CE
:1000C000A805A805151E3C1E341F3C1E341F881EA3
:1000D000AB1E341F021F111F29001E001F0020002D
:1000E00021002200230024002500260027002D00E7
:1000F0002E002A002B0014001A000800150017001B
:100100001C0018000C00120013002F0030003100FA
:100110002A0004001600070009000A000B000D0069
:100120000E000F003300340000002800E1001D0025
:100130001B000600190005001100100036003700F2
:10014000E500000052003800E000E300E20000009B
:1001500000002C000000000000000151025150007E
:1001600051004F0035003A003B003C003D003E008E
:100170003F004000410042004300440045002A0087
:100180002B0014001A000800150017001C001800AE
:100190000C00120013002F00300031003900040061
:1001A0001600070009000A000B000D000E000F00EA
:1001B0003300340000002800E1001D001B00060091
:1001C000190005001100100036003700E50000009E
:1001D00052004C00E000E300E200000000002C00B0
:1001E00000000000000000000100500051004F001E
:1001F00000000000000000000000000000000000FF
:1002000000000000000000000000000000000000EE
:1002100000000000000000000000000000000000DE
:100220000000000000000000390000000000000095
:1002300000000000000000000000000000000000BE
:1002400000000000000000000000000000000000AE
:10025000000000000000000000000000A9000000F5
:100260000000E300000000000000AE0000000000FD
:10027000000001000000BC00AA00BB0016034600FD
:10028000720065006500620069007200640036005B
:100290003000000020034B006E006F0062006C0015
:1002A00065007300730065004F0062006C00690018
:1002B0006700650000000403090409023B00020115
:1002C00000A0FA0904000001030101000921110145
:1002D0000001224000070581030800010904010014
:1002E0000103000000092111010001227B00070524
:1002F00082032000011201000200000008ADAD6081
:10030000FB01000102000105010902A101850209AA
:1003100001A1000509190129081500250195087595
:100320000181020501093009311581257F9502758A
:1003300008810609381581257F9501750881060514
:100340000C0A38021581257F950175088106C0C009
:1003500005010980A101850319012AB700150126AD
:10036000B700950175108100C0050C0901A1018538
:100370000419012AA002150126A002950175108119
:1003800000C005010906A101050719E029E71500CC
:100390002501950875018102950175088101050700
:1003A000190029FF150026FF009506750881000534
:1003B00008190129059505750191029501750391AB
:1003C00001C011241FBECFEFDAE0DEBFCDBF04B6FF
:1003D00003FE18C08091760290917702A091780276
:1003E000B09179028730904BA740B04B59F41092EE
:1003F0007602109277021092780210927902E0E071
:10040000F8E3099511E0A0E0B1E0EEECFFE302C0F3
:1004100005900D92AE38B107D9F722E0AEE8B1E011
:1004200001C01D92A637B207E1F70E9413120C9487
:10043000E51F0C94000081E0089581E008950C947C
:100440001D0208950C9421021F93CF93DF9300D0D7
:1004500000D01F92CDB7DEB749835A836B833091AA
:10046000910189819A81311114C0662359F02223A8
:1004700049F00E944808182F682F89819A810E94AC
:10048000F10703C00E941C08182F69817A81812F0F
:1004900004C00E94480869817A810F900F900F90E4
:1004A0000F900F90DF91CF911F910C947E0FFC0164
:1004B000262F408151816281738184810C942402B2
:1004C00081E00895CF93DF93EC0160E00E94570232
:1004D000BE01DF91CF910C9422020C94C4100C94B5
:1004E000C01008950E949B060E9471022FEF84E3C2
:1004F0009CE0215080409040E1F700C000000C9447
:1005000078180F931F93CF93DF938C0161E00E94C3
:100510005702EC01B8010E941F028823F1F1B801D3
:10052000CE010E9495168823C1F1B801CE010E9428
:10053000A914882391F1B801CE010E94F1158823F6
:1005400061F1F8018281882309F1CB358DE5D80767
:10055000C1F050F4C115FCE5DF0781F0CF3DDC456B
:10056000A9F40E947F0D19C0CC35EDE5DE0761F0DE
:10057000CD35DD4559F40E94C20C08C00E947202BC
:100580000CC00E94CB0C02C00E94CE0CC801DF91AF
:10059000CF911F910F910C941B0280E0DF91CF91BE
:1005A0001F910F9108950E94AC170C94EC020E94C9
:1005B000EF020C94B21708950C94DB0281E00895C9
:1005C0000C94DE020895CF93C82F0E94DC028C2F7A
:1005D0000E94E002CF91089580E00C94E3020E9413
:1005E000F1160C94E3020E94F11690919001891784
:1005F00021F0809390010C94E3020895CF93DF9350
:10060000CDB7DEB72B970FB6F894DEBF0FBECDBFC8
:100610004F83588769877A878B8761110E940E0CF8
:100620009E012F5F3F4F86E0F90111928A95E9F70D
:1006300085E0FE013796D90101900D928A95E1F788
:1006400089819A814C815D81452B31F09F3F31F446
:1006500091E08F3F19F403C091E001C090E090FF5A
:1006600009C049815A816B817C818D819E810E9464
:100670002F0B05C0C9010E9460028111F2CF2B9699
:100680000FB6F894DEBF0FBECDBFDF91CF910895B6
:10069000FC01808191810E948A080895CF9388236C
:1006A00009F450C0C82F8CEF8C0F813AD0F46C2F16
:1006B00080910201909103010E944E17882349F016
:1006C0006C2F80910201909103010E9486170E9475
:1006D000300C6C2F80910201909103010E948417CD
:1006E0000CC080E28C0F883058F4C77081E001C0E4
:1006F000880FCA95EAF70E94F10BCF910C94300C49
:10070000EBE5EC0FE33040F4F0E0E95BFE4F808175
:1007100090E0CF910C941617E8E5EC0FE73150F418
:10072000F0E0EE0FFF1FE75EFE4F80819181CF91D9
:100730000C942C17CD3E30F08C2F0E949812CF9144
:100740000C946A13CF910895882389F19CEF980F38
:10075000913A40F4682F80910201909103010E9428
:1007600086170DC090E2980F983058F4877091E08A
:1007700001C0990F8A95EAF7892F0E94F70B0C9414
:10078000300C9BE5980F933020F480E090E00C94BF
:10079000161798E5980F973120F480E090E00C94BC
:1007A0002C178D3E20F00E94F3120C946A130895CA
:1007B0001F93CF93DF93182FEB010E944E032097D6
:1007C00041F08FE99FE00197F1F700C00000219709
:1007D000F6CF812FDF91CF911F910C94A403893321
:1007E00019F060E070E002C060E570E00C94D8039E
:1007F000882321F00E94F10B0C94300C089588237B
:1008000021F00E94F70B0C94300C0895CF92DF92E8
:10081000EF92FF920F931F93CF93DF937C01D62F1C
:10082000C72FFC011281058102950F700E94E70B12
:100830008823B9F01123A9F08C2F807F803421F018
:1008400080E28D0F883068F08091500282FD09C0EF
:1008500082E00E94900C0E94E70B91E0D82ED926EE
:1008600001C0D12CCC2EC2948FE0C8228C2D90E0F8
:100870008C30910508F0CFC1FC01EA5AFF4F0C946F
:100880007C1F8C2F807FCF70882311F0C295C07F92
:10089000112399F0CC2309F4AAC180E28D0F88308E
:1008A00010F0D11104C08C2F0E94F10B03C08C2FCB
:1008B0000E94010C0E94300C9AC18D2F0E94A4034B
:1008C000CC2309F4A8C180E28D0F883038F1DD23F4
:1008D00029F18C2F0E94070C24C08C2F807FCF70B1
:1008E000803211F0C295C07FDD2319F0D130A1F123
:1008F0003DC08091500282FF17C0112349F0CC23E4
:1009000029F08C2F0E94F10B0E94300C80E070C106
:1009100080E00E94A403CC2309F47DC18C2F0E94A7
:10092000F70B0E94300C77C1112371F0002341F0C6
:10093000013031F40E94110C8C2B0E94190C6BC1F8
:100940000E94110C8C2B1DC0002319F0013009F4FA
:1009500062C10E94260C25C0112321F0063008F048
:100960005AC10EC0053008F056C11BC0112361F0FA
:10097000002331F0F701858180FF39C18F708583B5
:100980008C2F0E94F80347C1002359F0D93309F096
:100990003FC1FFEF07EE13E0F15000401040E1F7D8
:1009A00035C18C2F0E94FF0336C18C2F869586950A
:1009B000837019F0813061F02EC1112321F08D2F49
:1009C0009C2F937002C080E090E00E9416172BC10C
:1009D000112321F08D2F9C2F937002C080E090E0B6
:1009E0000E942C1720C18D2F112319F00E949812FC
:1009F00002C00E94F3120E946A1315C18C2F8370EB
:100A000009F047C011110BC12D2F22952695277093
:100A1000220F220F6D2F6F70862F90E0A0E0B0E0C4
:100A2000022E04C0880F991FAA1FBB1F0A94D2F779
:100A3000D4FF10C04FE050E060E070E004C0440F0D
:100A4000551F661F771F2A95D2F7409550956095E0
:100A5000709503C040E050E0BA01C695C695C370DA
:100A60008A019B01082B192B2A2B3B2BC901B801AA
:100A7000C23049F058F4C13019F00E940707CFC0C6
:100A80000E94F506CCC00E941907C9C00E94F30657
:100A9000C6C0112319F08C2F817001C08695882360
:100AA00009F4BDC02D2F229526952770220F220F05
:100AB0006D2F6F70862F90E0A0E0B0E0022E04C092
:100AC000880F991FAA1FBB1F0A94D2F7D4FF10C02A
:100AD0004FE050E060E070E004C0440F551F661F17
:100AE000771F2A95D2F7409550956095709503C071
:100AF00040E050E0BA01C695C695C3708A019B01DB
:100B0000082B192B2A2B3B2BC901B801C23049F005
:100B100058F4C13019F00E94CC0781C00E94BA0776
:100B20007EC00E94DE077BC00E942D0778C0CF7078
:100B3000112339F08C2F0E9453078D2F0E94F80348
:100B40006EC08D2F0E94FF038C2F0E94740767C018
:100B5000D23F21F128F4D03F41F0D13FC1F043C052
:100B6000D33F19F1D43F79F03EC0112341F0053055
:100B700008F051C08C2F8F710E9499074CC006302D
:100B800008F049C0F7CF8091500282FF18C01123AE
:100B900039F08C2F8F710E9453073DC01123C9F388
:100BA0008C2F8F710E94740736C0112329F08C2F6F
:100BB0008F710E943E072FC00E9439072CC011235D
:100BC00049F0CF718C2F0E94530763E08C2F0E9455
:100BD000750C21C081E00E94900C0230E0F082E0B0
:100BE0000E94900C18C0112331F0002391F28D2F38
:100BF0000E944E0310C0002399F2D93349F41FEF2D
:100C000027EE33E0115020403040E1F700C00000F3
:100C10008D2F0E94A40388EF8C0D843020F40E9455
:100C2000F1160E94E302DD20C9F00E94E30B80FD73
:100C300015C0F70112820E94DD0B0E945307C70105
:100C40000E944F060E94DD0BDF91CF911F910F9103
:100C5000FF90EF90DF90CF900C947407DF91CF91CD
:100C60001F910F91FF90EF90DF90CF9008950F9319
:100C70001F93CF93DF93EC01688179818A810E9471
:100C800095088C010E94F0070E94E106B801CE0190
:100C90000E940604DF91CF911F910F910895CF9389
:100CA000DF93EC01988189812B813C81232B31F0EA
:100CB0008F3F31F481E09F3F19F403C081E001C010
:100CC00080E080FD1DC0CE010E948102811110C014
:100CD0000E94E70B8823A1F08A81882389F0809104
:100CE000500282FD0DC082E0DF91CF910C94900CF8
:100CF000CE010E943706CE01DF91CF910C946202A3
:100D0000DF91CF91089580E090E00E94161780E077
:100D100090E00E942C170E940E0C0E94300C0E9442
:100D20009B140C946A1380910201909103010E941C
:100D300088170C9483060E94FE0B0C9493069295E0
:100D40009F70963079F010F4925001C09A50923012
:100D500068F4803F69F018F4883E40F409C0843F8D
:100D600029F406C0883E20F0813F11F080E008950C
:100D700081E00895FC01808191810E948A080E948F
:100D80009F060895CF93DF9300D000D01F92CDB778
:100D9000DEB70F900F900F900F900F90DF91CF91D3
:100DA0000895CF93DF9300D000D000D0CDB7DEB749
:100DB00026960FB6F894DEBF0FBECDBFDF91CF9160
:100DC0000895089508950C94E2060C94E3060E9499
:100DD000E5066093C3017093C4018093C5019093AD
:100DE000C6010C9483060C94E7060F931F930091A1
:100DF000C3011091C4012091C5013091C601602B3F
:100E0000712B822B932B1F910F910C94E7060F935C
:100E10001F930091C3011091C4012091C50130912D
:100E2000C60160237123822393231F910F910C9499
:100E3000E7060F931F930091C3011091C401209105
:100E4000C5013091C60160277127822793271F9122
:100E50000F910C94E7060C94E2060E942B07609316
:100E6000BF017093C0018093C1019093C2010C94A3
:100E7000830660E070E0CB010C942D070F931F9365
:100E800041E050E060E070E08A019B0104C0000F87
:100E9000111F221F331F8A95D2F7C901B8011F9174
:100EA0000F910C942D070F931F9341E050E060E0E9
:100EB00070E004C0440F551F661F771F8A95D2F754
:100EC0008091BF019091C001A091C101B091C20178
:100ED0008A019B01082B192B2A2B3B2BC901B80136
:100EE0001F910F910C942D070F931F9341E050E039
:100EF00060E070E004C0440F551F661F771F8A959D
:100F0000D2F740955095609570958091BF01909172
:100F1000C001A091C101B091C2018A019B010823C7
:100F200019232A233B23C901B8011F910F910C9467
:100F30002D070F931F9341E050E060E070E004C084
:100F4000440F551F661F771F8A95D2F78091BF0106
:100F50009091C001A091C101B091C2018A019B0191
:100F6000082719272A273B27C901B8011F910F918C
:100F70000C942D070F931F930091BF011091C00196
:100F80002091C1013091C201602B712B822B932BD8
:100F90001F910F910C942D070F931F930091BF0188
:100FA0001091C0012091C1013091C20160237123D1
:100FB000822393231F910F910C942D070F931F935E
:100FC0000091BF011091C0012091C1013091C20177
:100FD00060277127822793271F910F910C942D076B
:100FE00008952EE0929F800D1124E82FE695E69556
:100FF000E695877051E001C0550F8A95EAF785E0C4
:10100000E89FF0011124EE56FE4F20E030E070E042
:101010004081CB01022E02C0969587950A94E2F793
:101020008170819584278523842781932F5F3F4F8B
:101030002530310569F708952EE0929F800D112427
:10104000682F669566956695982F977085E0689FDE
:10105000B001112440E050E080E0FB01E40FF51FF7
:10106000EE56FE4F208130E0092E02C036952795BE
:101070000A94E2F721703327042E01C0220F0A944C
:10108000EAF7822B4F5F5F4F4530510531F70895E6
:10109000BF92CF92DF92EF92FF920F931F93CF9365
:1010A000DF938C01C090BF01D090C001E090C101DE
:1010B000F090C2018091C3019091C401A091C5013B
:1010C000B091C601C82AD92AEA2AFB2ACFE1D0E08A
:1010D000D701C6010C2E04C0B695A79597958795A4
:1010E0000A94D2F780FD04C0219790F7B12C07C075
:1010F000BC2EB8018C2F0E94910F0197A9F38B2D64
:10110000DF91CF911F910F91FF90EF90DF90CF90E3
:10111000BF900895CF93DF93EC010E944808BE0171
:101120000E94910FDF91CF9108951F93CF93DF938A
:10113000EB0190919101992321F0CB010E948A0843
:1011400013C0882349F0CB010E944808182F682F4C
:10115000CE010E94F10704C0CB010E941C08182F89
:10116000BE01812F0E94910FDF91CF911F910895B1
:101170001F93CF93DF93C091C70116E08091C80100
:10118000C81799F0D0E01C9FF0011D9FF00D1124AD
:10119000E753FE4F40815181628173818481958143
:1011A0000E94D1062196C770E9CFDF91CF911F91A0
:1011B00008954091F9015091FA016091FB017091FD
:1011C000FC018091FD019091FE010C94D106EF92FB
:1011D000FF920F931F93CF93DF938091FE0182952F
:1011E0008F7009F065C08091FB01882309F460C00D
:1011F0008091C701F090C8011091F9010091FA01A6
:101200006091FC017091FD0191E01F3F09F090E0B9
:10121000C0910001D0910101292F96E0E92E8F1590
:1012200009F446C06115710521F00F3F21F030E04F
:1012300003C031E001C0322F90E030FD36C0E89E9F
:10124000F001E99EF00D1124DF01A753BE4F119666
:101250003C911197301329C03C91311326C012964E
:101260003C911297311121C013964D915C911497C6
:10127000461B570B4C175D07C0F48091FE018F7021
:1012800080618093FE01E253FE4F80818F70806108
:10129000808389EF91E00E944F06DF91CF911F91EB
:1012A0000F91FF90EF900C94B80801968770B7CF1C
:1012B000DF91CF911F910F91FF90EF9008959F9232
:1012C000AF92BF92CF92DF92EF92FF920F931F9354
:1012D000CF93DF93CDB7DEB761970FB6F894DEBF3B
:1012E0000FBECDBF8C0185E0F801DE011D96019097
:1012F0000D928A95E1F7D8011296EC909091F90140
:10130000E091FA012091FC013091FD012115310598
:1013100031F0EF3F31F481E09F3F19F403C081E0E9
:1013200001C080E0B82FB1709B2E80FD47C1D8016D
:101330004C9111965C9111971396AD90BC901497B7
:1013400089EFC82E81E0D82EF090FB01B501621B19
:10135000730B2091000130910101FF2009F4D9C0E5
:101360008091FE016217730708F095C0282F207F37
:1013700009F052C05E1313C0491311C0FE2CE110D6
:101380000EC08F7080618093FE010E94D908C60153
:101390000E944F068091FE01F80185834DC1AB2864
:1013A00031F05F3F31F481E04F3F19F403C081E039
:1013B00001C080E080FD03C081E08E2502C080E096
:1013C00090E0F82FF170FF2E80FF1CC08091C701C4
:1013D0002091C80136E0821709F40BC190E0389FD4
:1013E000F001399FF00D1124E753FE4F6181561330
:1013F00006C06081461303C06281E61203C00196F5
:101400008770E9CFFE2CEE2009F416C18091FE0111
:1014100081608093FE0154C05E1306C0491304C06E
:10142000E11002C0F80199C0C8010E94BA068823E1
:1014300061F1EE2051F12091FE01822F82958F7093
:1014400090E0029774F08091F9019091FA019887E9
:101450008F831986BB86AA862C87CE0107960E94A9
:101460004F0686E0F801A9EFB1E001900D928A9550
:10147000E1F70E94E7080E94D9080AC05E1711F13F
:10148000C8010E94BA0681112CC0C8010E944F06F3
:10149000FF24F394D1C0282F207F81F77A2DB98AB9
:1014A000A88A6E2D89890E94C20689EF91E00E9468
:1014B0004F0686E0D6011D928A95E9F70E94D90869
:1014C000F12CBAC04913DCCFE110DACFF8018583E3
:1014D000C8010E944F0686E0D6011D928A95E9F761
:1014E000ABC0EE2091F22091FE01822F82958F7089
:1014F00090E002970CF4B5CF8091F9019091FA0138
:101500009A8389831B82BD82AC822E83CE01019691
:10151000A6CF6217730708F044C0FE2CEE2009F432
:10152000B4CF5E1330C049132EC02091FE0120FDC0
:1015300021C0822F82958F70482F50E041155105B0
:10154000C9F0F80125834F30510541F08F5F982F86
:101550009295907F822F8F70892B8583C8010E947E
:101560004F0686E0F801A9EFB1E001900D928A954F
:10157000E1F73CC086E0F801A9EFB1E001900D92DF
:101580008A95E1F759C0C8010E94BA06811169CF56
:101590008091FE0181608093FE01C8010E944F0688
:1015A0004BC07A2DB98AA88A6E2D89890E94C206FD
:1015B00086E0D6011D928A95E9F718C0EE2009F45D
:1015C00064CFC8010E94BA06F82E882309F45DCFC3
:1015D00086E0F801A9EFB1E001900D928A95E1F75C
:1015E00089EF91E00E9448030E94E7080E94D90811
:1015F00023C04D875E878D859E850E948A08292F8E
:1016000022952F70223028F49F7039F0811105C087
:101610000BC0243028F49F7049F4805E883020F09D
:10162000C8010E944F069F2CF92C06C0D8011596C0
:101630009C91907F91F7F8CF8F2D61960FB6F8941B
:10164000DEBF0FBECDBFDF91CF911F910F91FF90F5
:10165000EF90DF90CF90BF90AF909F9008951F9331
:10166000CF93DF93CDB7DEB72C970FB6F894DEBFDC
:101670000FBECDBF4F83588769877A878B879C873A
:10168000CE0107960E945F098823D1F09F8188854B
:101690002A853B85232B31F08F3F31F481E09F3F3A
:1016A00019F403C081E001C080E080FD47C04F8194
:1016B000588569857A858B859C850E94D1063EC0B8
:1016C00086E0FE013796DE01119601900D928A9513
:1016D000E1F7FF81E8856A857B856115710531F049
:1016E000EF3F31F481E0FF3F19F403C081E001C016
:1016F00080E080FD23C02091C80130E0C90101963F
:10170000877099274091C70150E084179507F1F140
:10171000F983EA837D836C8396E0929FD001939F47
:10172000B00D1124A753BE4FFE01319601900D92CA
:101730009A95E1F78093C8010E94B80816E080915D
:10174000C7019091C801891771F1189FC001112438
:1017500087539E4F0E945F09882329F1E091C701BA
:101760001E9FF0011124E753FE4F40815181628199
:101770007381848195810E94D1068091C70190E098
:101780000196877099278093C701D9CF0E949B0645
:101790001092C8011092C701E9EFF1E086E0DF0185
:1017A0001D928A95E9F72C960FB6F894DEBF0FBE0E
:1017B000CDBFDF91CF911F9108958091070285954C
:1017C0008595859508958091070287700895909179
:1017D0000702977081E009F480E008958091120279
:1017E000089590911202892B80931202089580959A
:1017F000909112028923809312020895109212028E
:10180000089590911102892B80931102089580957B
:101810009091110289238093110208951092110270
:10182000089580910802089508950C94140C0C9466
:10183000150C9091500292FD08C0909108029817E3
:1018400021F0809308020C94170C089580910802EF
:10185000882329F01092080280E00C94170C089558
:10186000CF93DF93E0910201F09103018091120286
:101870008083E0910201F091030190818091110237
:10188000892B808380910802882381F0E0910201F6
:10189000F09103019081892B8083809102019091C6
:1018A00003010E94421781110E94260CC09102017F
:1018B000D091030148E050E06FEF71E0CE010E944B
:1018C000961F892B69F088E0FE01AFEFB1E001902F
:1018D0000D928A95E1F7CE01DF91CF910C94FD1620
:1018E000DF91CF9108950C94140C9091500292FDC9
:1018F00010C098E0899F90011124262B20930702A5
:101900000E945307809107028595859585950C94D3
:10191000730C0C9453071092070280E00C94730C24
:10192000209107028095822380930702982F977059
:1019300099F430E0482F082E000C550B241735077A
:1019400059F09091500292FD07C085958595859537
:101950000E9474070C948B0C08959091500292FB96
:10196000222720F9281769F080FB92F99093500202
:1019700080914F02909150020E94FB0C82E00C94E7
:10198000900C08958091500282FB882780F991E0A5
:1019900089270C94AD0C81E00C94AD0C80E00C9484
:1019A000AD0C6FEF7FEF80E090E00C94CF1F80E0F4
:1019B00090E00E94AB1F21E0893E9E4F09F020E09D
:1019C000822F089582E090E00C94A31F83E090E0C2
:1019D0000C94A31FCF9384E090E00E94A31FC82F14
:1019E00082E290E00E94A31F2C2F30E0A901582B27
:1019F000CA01CF910895CF93C92F682F84E090E05A
:101A00000E94B11F6C2F82E290E0CF910C94B11F25
:101A1000AB01BC018FE090E00C94C31FAB01BC0193
:101A200083E190E00C94C31F60E070E0CB010C9464
:101A30000E0D60E070E0CB010E94080D0C94140DB7
:101A400069EE7EEF80E090E00E94CF1F60E082E0D0
:101A500090E00E94B11F60E083E090E00E94B11F1F
:101A60001092C3011092C4011092C5011092C601D8
:101A700060E084E090E00E94B11F60E082E290E0CC
:101A80000E94B11F60E085E090E00E94B11F60E01D
:101A900086E090E00E94B11F6FEF87E090E00E9427
:101AA000B11F40E050E0BA0188E090E00E94C31FFF
:101AB00060E08DE090E00E94B11F40E050E0BA018C
:101AC00088E190E00E94C31F60E087E190E00E94FF
:101AD000B11F40E050E0BA018CE190E00E94C31FCA
:101AE00060E070E080E290E00E94CF1F40E050E0B4
:101AF000BA0188E190E00E94C31F0C94190D0C9468
:101B0000200D682F8EE090E00C94B11F0E943718D2
:101B10006093210270932202809323029093240207
:101B200060931D0270931E0280931F029093200207
:101B3000089585B7806885BF85B7806885BF08959B
:101B400081E008950C94A00D08950C94A40D0C94BC
:101B5000A40D0C94A70D0C94A40D0C94AB0D0C9437
:101B6000A40D0E94990D8DE690E10E94E7160E9457
:101B7000AF0D0C94AD0D0E94A50D0C94A40D0E9408
:101B800087100C94E2020E9422180E946C110E949D
:101B9000BF0D0C94A90D5F926F927F928F929F92CE
:101BA000AF92BF92CF92DF92EF92FF920F931F936B
:101BB000CF93DF93CDB7DEB72A970FB6F894DEBF89
:101BC0000FBECDBF0E948111C82E81110E94860DCB
:101BD00033E1832E32E0932E00E010E0502E802F70
:101BE0000E94AB105C01F401619071904F01682676
:101BF000792661147104B1F40F5F1F4F0530110590
:101C000069F78FEF89838A831B820E942B1881607A
:101C1000782F9D838C8349815A816B818D810E94AD
:101C2000FE023AC08091250281FD0E94B410D12CA1
:101C3000EE24E394F12CC3018E219F21892B29F1FD
:101C40000E94A20D8823A9F0DE825F82AE20BF2011
:101C500081E0AB2809F480E088870E942B1881601E
:101C6000782F9A8789874E815F8168858A850E944F
:101C7000FE02000F111FF801ED5EFD4F8081918182
:101C8000E826F926F182E08207C0D394EE0CFF1C0F
:101C9000FEE0DF12D0CFB0CF81E0C11001C080E004
:101CA0002A960FB6F894DEBF0FBECDBFDF91CF915D
:101CB0001F910F91FF90EF90DF90CF90BF90AF906A
:101CC0009F908F907F906F905F9008950E94CB0DB2
:101CD0000E9488130C94F302CF93DF930E94960F17
:101CE000EC01811521E5920708F045C0811530E52A
:101CF000930708F094C0883E910528F5803E910531
:101D000008F0F8C0883A910570F4853A910508F01A
:101D10007CC08130910509F475C008F4E8C00497CF
:101D200008F0E8C0E4C08F3B910508F0E0C0C85A55
:101D3000D0E0CC0FDD1FC65BDE4F0990D881C02DEF
:101D4000CE019464D8C0811540E2940758F48115FF
:101D500051E0950708F0CEC08D3E910508F4C7C04C
:101D60009065C9C0C11580E4D80708F4C0C0DF7011
:101D7000CE01906AC0C0811525E59207A8F48115AF
:101D800034E5930708F095C0811543E5940708F002
:101D90007BC0811552E5950708F061C0D82FCC278C
:101DA000CE01816F906AA7C0C11589E5D807A0F45C
:101DB000C11528E5D20708F082C0C11536E5D30762
:101DC00008F095C08C2F0E942A108F7190E0D82FB8
:101DD000CC27CE0190628FC0C1154AE5D40708F424
:101DE00074C0CE0190568115904208F080C08D2FAE
:101DF0008F710E942A10DD27D0628F71AE01582B9F
:101E0000CA0179C081E090E076C0C55AD0E0C858D8
:101E1000DE4F8881C82FD0E0CE0190646CC074E0A2
:101E2000969587957A95E1F7282F23703C2F33708C
:101E300081E090E002C0880F991F3A95E2F79C6814
:101E4000AC01522B9A019C2F9F709695969550E26B
:101E5000959FE0011124C9018C2B9D2B4CC08370F0
:101E6000992721E030E002C0220F331F8A95E2F764
:101E70009C2F9695969580E2989FE0011124C22BA5
:101E8000D32BCE019C6837C08370992721E030E0C6
:101E900002C0220F331F8A95E2F79C2F96959695E4
:101EA00040E2949FE0011124C22BD32BCE019A680B
:101EB00022C0D82FCC27CE01846F906A1CC0DC2FA3
:101EC000CC27CE01806F906A16C08C2F8F700E9435
:101ED0002A1094E0D695C7959A95E1F7CF70D0E097
:101EE000DC2FCC27D0699E01282BC90104C080E0DB
:101EF00090E001C0CE01DF91CF91089526E4829F4A
:101F0000C0011124FC012EE0729FE00DF11D11248F
:101F1000E60FF11DEE0FFF1FE852FF4F85919491E0
:101F200008950E947E0F0E946C0E089582389105DC
:101F300069F1B0F48133910509F46DC048F4893238
:101F4000910509F463C08A32910509F469C00895C6
:101F50008533910509F455C089339105B9F0089589
:101F6000833E910569F138F4803E9105B1F0823EDF
:101F7000910509F10895863E9105A9F1873E9105E5
:101F8000B9F1843E910509F064C023C020914F024D
:101F900020FD4FC021FD4DC0089580914F0280FD6E
:101FA00044C08091500280FF44C080914F0284FD64
:101FB00042C083EE4DC080914F0282FF38C0F5CF02
:101FC00080914F0282FD33C08091500280FD31C06C
:101FD000ECCF8091500281FF32C080914F0284FD8E
:101FE0002AC087EE35C080914F0283FF26C0F5CF0F
:101FF00080914F0283FD21C08091500281FD1FC05E
:10200000ECCF80914F0285FD1CC01DC080914F0216
:1020100085FD19C016C080914F0286FD16C017C0FD
:1020200080914F0286FD13C010C089E311C082EE7B
:102030000FC080EE0DC080E00BC086EE09C084EEBC
:1020400007C089E205C085E303C08AE201C081E3DD
:1020500090E0089590914F0292FF0DC0282F2871B3
:10206000283019F4877F846006C0282F247124301B
:1020700011F48B7F886093FF0DC0282F28712831C1
:1020800019F4877E846106C0282F2471243111F44D
:102090008B7E88612091500220FF0DC0382F38714F
:1020A000383019F4877F816006C0382F31713130A4
:1020B00011F48E7F886021FF0DC0282F28712831F0
:1020C00019F4877E816106C0282F2171213111F416
:1020D0008E7E886194FD877E089580E008950C943B
:1020E000D10C0E9481118FE39CE90197F1F700C0A8
:1020F00000000E94811180E00E94AB1080FF04C0AC
:102100000E946F100C94781808950C9471100E941E
:10211000D70C811102C00E947F0D0E94E20C8093B7
:1021200025020E94EA0C9093500280934F020E9475
:1021300085100E94E60C682F70E080E090E00E941D
:10214000F3066091BF017091C0018091C10190912F
:10215000C2010C942B07E82FF0E0EE0FFF1FE55AA9
:10216000FD4F808191810895089580EA8A95F1F765
:10217000089500C008950C94B51008950C94BD10F6
:102180000C94BE100C94BD100C94C210F894E82F5F
:10219000E295EF70F0E031A1282F2F7081E090E000
:1021A00001C0880F2A95EAF7982F9095932391A361
:1021B00092A1892B82A3789408950F931F93CF93B4
:1021C000DF93C9E8D1E089918F3F11F00E94C610DA
:1021D00081E0CE38D807B9F7CBE7D1E009E811E0C4
:1021E00089918F3F11F00E94C6100C171D07C1F78F
:1021F000DF91CF911F910F910895BF92CF92DF92FF
:10220000EF92FF920F931F93CF93DF938C01C62F12
:10221000D0E0CE0187579E4F6C01FC0190819F3F1B
:1022200009F450C0B62EF894E92FE295EF70F0E073
:1022300081A19F7021E030E001C0220F9A95EAF75A
:10224000822B81A382A12095282322A378940E9427
:10225000B910EBE7F1E049E851E021E030E0E12C92
:10226000F12C61916F3F89F0A62FA295AF70B0E07D
:1022700090968C9190E06F7002C0959587956A95C5
:10228000E2F780FD02C0C90102C080E090E0E82AC8
:10229000F92A220F331F4E175F0719F7F6018081C5
:1022A0008F3F11F00E94C61061E0E114F10409F4BF
:1022B00060E08B2D0E94BB10CC0FDD1FC00FD11F23
:1022C000F982E882DF91CF911F910F91FF90EF90FB
:1022D000DF90CF90BF9008950E94DD108AE0EBE57B
:1022E000F2E0DF01982F1D929A95E9F7E1E5F2E01F
:1022F000DF011D928A95E9F785E00E94CC110C94CC
:102300006D02FF920F931F93CF93DF93CDB7DEB78C
:102310002A970FB6F894DEBF0FBECDBF8E010F5FB8
:102320001F4F8AE0F80111928A95E9F7F12C6F2D81
:10233000C8010E94FD10F394F5E0FF12F8CF4AE0C7
:1023400050E0B80181E592E00E94961FFF24F394CB
:10235000009709F4F12C892B41F08AE0F801A1E5FE
:10236000B2E001900D928A95E1F72F2D45E06BE5E3
:1023700072E081E592E00E94CD110E946F028F2DE4
:102380002A960FB6F894DEBF0FBECDBFDF91CF9176
:102390001F910F91FF9008950895FF920F931F933F
:1023A000CF93DF93F82E092F162FD72FC42F222378
:1023B00049F081E0809328020E942B189093270215
:1023C00080932602809128028823D9F080912602EA
:1023D000909127020E944318059798F0EF2DF02F57
:1023E000A12FBD2F80E090E04C2F50E0841795077F
:1023F00034F4219131912D933D930196F7CF1092B2
:102400002802DF91CF911F910F91FF9008950E94B4
:102410002E1A0E94C30D0C943A1A0E943E1A0E9472
:10242000660E0C94581A0E94C9170E94151A0E9431
:10243000B10D0E9407120E940D120E94BB0DFBCF2E
:1024400080912F0280FF06C06091090170E0660F45
:10245000771F26C081FF04C06091090184E005C098
:1024600082FF07C06091090188E0689FB0011124D4
:1024700017C090912E029923D1F060910801961710
:1024800088F72091090188E0289F90011124929FEC
:10249000A001939F500D112470E0CA010E94681F93
:1024A0006038710540F46115710519F406C068E0E3
:1024B00070E0862F08958FE7089581E00895809158
:1024C0002F0280FF08C06091050170E07595679547
:1024D0007595679521C081FF06C06091050170E088
:1024E0007595679519C082FF04C06091050170E081
:1024F00010C090912D02992399F0609104019617D4
:10250000A0F780910501899FC001112470E00E940D
:10251000681F6038710540F46115710519F406C033
:1025200061E070E0862F08958FE7089581E00895B7
:102530008D3E21F40E942012819504C08E3E29F424
:102540000E9420128093330208958F3E21F40E944E
:102550002012819504C0803F29F40E9420128093AC
:1025600032020895893F19F40E945F1205C08A3F24
:1025700031F40E945F1281958093340208958B3F5D
:1025800021F40E945F12819504C08C3F29F40E94BF
:102590005F128093350208959FE0980F983078F489
:1025A00021E030E0A90102C0440F551F9A95E2F7DF
:1025B000CA0190913102892B8093310208958D3F99
:1025C00021F480912F0281600BC08E3F21F4809115
:1025D0002F02826005C08F3F29F480912F02846012
:1025E00080932F0208958D3E39F49091330297FF26
:1025F00035C01092330259C08E3E29F490913302B7
:102600001916BCF32BC0909132028F3E29F497FF2C
:1026100025C01092320249C0803F19F41916CCF33C
:102620001DC090913402893F29F41916BCF4109210
:1026300034023BC08A3F19F497FF10C0F8CF8B3F9C
:1026400039F49091350297FF09C0109235022DC0E0
:102650008C3F21F4909135021916BCF39FE0980F3E
:10266000983080F421E030E0A90102C0440F551FEA
:102670009A95E2F7CA01809590913102892380935F
:10268000310213C08D3F21F480912F028E7F0BC049
:102690008E3F21F480912F028D7F05C08F3F29F45A
:1026A00080912F028B7F80932F02809132028111C3
:1026B00006C080913302811102C010922E028091D7
:1026C0003402811106C080913502811102C010923E
:1026D0002D0208950E942B1820913202211104C06E
:1026E00020913302222321F090932C0280932B021D
:1026F00020913402211104C020913502222321F0BF
:1027000090932A028093290280E392E00C940817A8
:10271000EF92FF920F931F93CF93DF9300D000D0DF
:1027200000D0CDB7DEB786E0E0E3F2E0DE0111963F
:1027300001900D928A95E1F7E0903202F090330219
:10274000009134021091350210923202109233023D
:102750001092340210923502E11003C0FF2009F4F8
:102760005DC080912B0290912C020E944318AC0115
:1027700090912E02992339F020910A0130E024171C
:10278000350758F04BC020910B018AE0289F90013B
:1027900011242417350718F041C09F3F19F09F5F9F
:1027A00090932E02EE2061F00E9420121E1414F06D
:1027B0009FEF01C091E0989F902D112490933202D9
:1027C000FF2061F00E9420121F1414F09FEF01C03F
:1027D00091E0989F902D1124909333023091320212
:1027E0003323E1F0209133022223C1F045EB34037F
:1027F000C0011124992319F09093320203C081E0A3
:102800008093320235EB2303C0011124992319F080
:102810009093330203C081E080933302011103C01F
:10282000112309F45DC08091290290912A020E942F
:102830004318AC0190912D02992339F020910601A3
:1028400030E02417350758F04BC0209107018AE08B
:10285000289F900111242417350718F041C09F3F8D
:1028600019F09F5F90932D02002361F00E945F1288
:10287000101614F09FEF01C091E0989F902D112445
:1028800090933402112361F00E945F12111614F02C
:102890009FEF01C091E0989F902D112490933502F5
:1028A000309134023323E1F0209135022223C1F02C
:1028B00045EB3403C0011124992319F0909334029D
:1028C00003C081E08093340235EB2303C00111245F
:1028D000992319F09093350203C081E0809335026B
:1028E0008091320281110BC080913302811107C0A7
:1028F00080913402811103C08091350281110E94C0
:102900006A13EB82FC820D831E8386E0FE01319602
:10291000A0E3B2E001900D928A95E1F726960FB6FA
:10292000F894DEBF0FBECDBFDF91CF911F910F9105
:10293000FF90EF900895E0E3F2E086E0DF011D9262
:102940008A95E9F710922E0210922D0210922F0212
:102950000895CF93DF93EC01FB018281882309F472
:102960003CC1C430FDE5DF0760F4CB3F9CE5D907EF
:1029700088F49E0122503C452431310508F02EC1D7
:1029800009C0C236EDE5DE0729F0C63AFDE5DF07EE
:1029900009F024C10E94EA0C9093500280934F02E8
:1029A000C1318CE5D80709F4C6C008F042C0C9306F
:1029B000ECE5DE0709F49BC000F5C5308CE5D807CF
:1029C00009F485C078F4C330ECE5DE0709F478C07B
:1029D00008F07AC0C230DC4509F0F5C080914F02A2
:1029E0008160EFC0C7309CE5D90709F478C008F0D2
:1029F0007AC080914F028061E4C0CD30FCE5DF07F2
:102A000009F487C058F4CB309CE5D90709F479C0A4
:102A100008F07BC080914F0288606FC0CF30FCE52A
:102A2000DF0709F480C008F082C080914F02877FE1
:102A3000C8C0CE3F9CE5D90709F471C000F5C53187
:102A4000FCE5DF0709F485C068F4C3319CE5D907CC
:102A500009F475C008F095C00E949B0680914F0252
:102A60008F77AFC0CC3FFCE5DF07A9F108F054C079
:102A7000CB3FDC4509F0A7C08091500240C0C23076
:102A8000EDE5DE0709F489C058F4C1158DE5D807D6
:102A900009F45AC008F069C08091500282602FC0CA
:102AA000C236EDE5DE0709F47CC0C63AFDE5DF0776
:102AB00009F481C0C330DD4509F085C080E06EC0F7
:102AC00080914F0282607DC080914F0216C080913C
:102AD0004F02886076C08091500282604FC0809122
:102AE0004F0280626EC080914F0280646AC00E9473
:102AF0009B0680914F02806864C0846062C08160E0
:102B00003DC080914F028E7F5CC080914F028D7FCF
:102B100058C080914F0216C08091500218C0809119
:102B200050028D7F2BC080914F028F7E4AC08091D2
:102B30004F028F7D46C080914F028F7B42C08091B3
:102B40004F02877F8B7F3DC0809150028D7F8E7FAB
:102B500015C080914F0282FB222720F991E0922735
:102B600090FB82F990FB83F92CC080915002982F42
:102B7000909591708E7F892B90FB81F98093500204
:102B800022C00E949B0680914F0287FB222720F9DA
:102B900091E0922790FB87F914C081E00E94810D9B
:102BA00012C080914F0284FB222720F991E09227E6
:102BB00090FB84F906C080914F02982F909590FB6E
:102BC00080F980934F0280914F02909150020E94B1
:102BD000FB0C0E949B0680E001C081E0DF91CF9159
:102BE0000895CF93DF9386319C4541F5EB010E9418
:102BF000EE0B982F8A8120910201309103018823E6
:102C000079F09A7A81E009F480E08093360291119C
:102C100002C069E201C065E3C9010E9484170AC0CD
:102C200080913602811102C069E201C065E3C901E9
:102C30000E9486170E94300C80E001C081E0DF9185
:102C4000CF9108950F931F93CF93DF93C42FD22F6B
:102C5000FC0182818823C9F0409339020E942B181D
:102C6000909338028093370280E28C0F883008F00E
:102C700057C0C77081E001C0880FCA95EAF7DF919D
:102C8000CF911F910F910C94F80380913902481352
:102C900030C080913702909138020E944318883CDE
:102CA000910538F510E21D0FCD17B9F080E28C0FB9
:102CB000883040F4C77081E001C0880FCA95EAF7F8
:102CC0000E94FF03183028F581E09D2F977001C006
:102CD000880F9A95EAF70E94F803802F0E94EF036D
:102CE0001830F0F4D77081E001C0880FDA95EAF768
:102CF0000AC080E28C0F883098F4C77081E001C070
:102D0000880FCA95EAF7DF91CF911F910F910C942C
:102D1000FF03802FDF91CF911F910F910C94EF0350
:102D2000DF91CF911F910F9108950F939C01CB01DB
:102D3000243F4CE5340731F188F4293DFCE53F0799
:102D4000D9F02A3D4CE5340779F1283D3C45A9F5F9
:102D500006E221EE41EE68ED7CE52BC0263FFCE566
:102D60003F07E1F0A8F0273F3C4539F507E225EEA3
:102D700046EE67EF7CE51DC007E225EE45EE69ED06
:102D80007CE517C006E221EE40EE64EF7CE511C061
:102D900007E225EE44EE65EF7CE50BC006E221EE8E
:102DA00042EE66EF7CE505C008E221E045EE6AED03
:102DB0007CE50E94221680E008C0FC018281882305
:102DC00019F01092390201C081E00F91089590939B
:102DD0008F0180938E01089590933F0280933E026D
:102DE0000895E0913E02F0913F02309721F001906A
:102DF000F081E02D099480E00895E0913E02F09189
:102E00003F02309721F00280F381E02D099408956C
:102E1000E0913E02F0913F02309739F022E0DC0170
:102E20002C930480F581E02D0994089520913C02B3
:102E300030913D022817390771F090933D0280933D
:102E40003C02E0913E02F0913F02309721F0068073
:102E5000F781E02D0994089520913A0230913B02C8
:102E60002817390771F090933B0280933A02E09162
:102E70003E02F0913F02309721F00084F185E02D71
:102E800009940895FC01329697E080E0915029F072
:102E900021912223D9F38F5FF9CF0895662349F05A
:102EA000FC01329608962191621729F0E817F9077C
:102EB000D1F780E0089581E008959C01FC013296ED
:102EC0009FEF80E04191461789F09F3F19F441112F
:102ED00001C0982F8F5F8630A9F79F3F39F0F90125
:102EE000E90FF11D97FDFA956283089508959C01FD
:102EF0002A5F3F4FFC014281461301C012820196B6
:102F000082179307B9F708950C945D170C947717FF
:102F1000029626E0FC0111922A95E9F7089508959A
:102F20000C948F1783E0809340020C9490178111CA
:102F300002C081E001C082E0809340020C949017AF
:102F40000C94971781E0809340020C9490170C9496
:102F5000A21708950C94A9170C94AA170C94A917FA
:102F60000C94A9170C94A917CF930E94B0170E9434
:102F700081110E94AE17C0E08C2F0E94AB10892BEC
:102F800029F4CF5FC530C1F780E001C081E0CF9167
:102F9000089508951F920F920FB60F9211248F93E8
:102FA0009F93AF93BF9380914102811113C0809191
:102FB000650290916602A0916702B0916802419605
:102FC000A11DB11D8093650290936602A0936702D4
:102FD000B0936802BF91AF919F918F910F900FBEF8
:102FE0000F901F90189580916D02843031F10E94EE
:102FF000D3021092410220E488E190E00FB6F894E9
:10300000A895809360000FBE2093600083B7817FF6
:10301000846083BF83B7816083BF7894889583B7CA
:103020008E7F83BF0FB6F894A89580916000886169
:1030300080936000109260000FBE08950E949B066E
:103040000C94D70282E084BD93E095BD9AEF97BDC2
:1030500080936E0008952FB7F89480916502909147
:103060006602A0916702B09168022FBF08952FB742
:10307000F894609165027091660280916702909168
:1030800068022FBF08959C014FB7F89480916502A4
:1030900090916602A0916702B09168024FBF821BB7
:1030A000930B089578941F920F920FB60F921124EC
:1030B0008F939F93AF93BF93809165029091660227
:1030C000A0916702B09168020196A11DB11D809385
:1030D000650290936602A0936702B0936802BF9165
:1030E000AF919F918F910F900FBE0F901F901895E9
:1030F00081E08093E00080E28093D8001092C900C4
:103100008FE19EE40197F1F700C0000087E090EBAB
:10311000DC018093760290937702A0937802B093BB
:1031200079029CE088E10FB6F894A895809360003E
:103130000FBE90936000FFCF80914D0208950895D7
:1031400022E02093E9002FEF3091E800215035FD77
:1031500006C035ED3A95F1F700002111F5CF209129
:10316000E80025FF0BC040E050E066E070E00E9400
:10317000CA1A8091E8008E778093E8000895CF9373
:10318000DF9321E02093E9002FEF3091E8002150F8
:1031900035FD06C035ED3A95F1F700002111F5CF68
:1031A0002091E80025FF14C0EC0140E050E068E009
:1031B00070E00E94CA1A8091E8008E778093E80040
:1031C00088E0FE01A5E4B2E001900D928A95E1F756
:1031D000DF91CF91089580934202709344026093EF
:1031E000430280916D02843001F582E08093E90012
:1031F0008FEF9091E800815095FD06C095ED9A956E
:10320000F1F700008111F5CF8091E80085FF0DC036
:1032100040E050E063E070E082E492E00E94CA1A6D
:103220008091E8008E778093E8000895BC0184E0E7
:103230000C94EB18BC0183E00C94EB1880916C02A9
:10324000811109C00E945B1C0E94B81C8091E200A1
:1032500084608093E200089510926C0208950C94AB
:10326000A7176091690281E0611101C080E00C94B0
:10327000921790916D0281E0943009F080E06091A6
:1032800069020C94971742E061EC81E00E94D41B24
:1032900042E261EC82E00E94D41B90916D0281E0D9
:1032A000943009F080E0609169020C94A01780913D
:1032B0006F02833009F461C030F4813071F08230E4
:1032C00009F49AC008958A3009F486C08B3009F455
:1032D0006CC0893009F0A8C020C080916E02813A8C
:1032E00009F0A2C08091E800877F8093E800809178
:1032F000720290917302892B21F468E085E492E0D8
:1033000003C060E080E090E070E00E94151B8091B7
:10331000E8008B778093E800089580916E028132F7
:1033200009F082C08091720290917302029708F0B6
:103330007BC08091E800877F8093E8008091E8005F
:1033400082FD05C080916D028111F8CF6DC0209182
:10335000F3008091F20090E0922B029731F480917B
:10336000F100813011F0863021F48091F1008093DA
:103370004D028091E8008B7753C080916E02813AB4
:1033800009F052C08091720290917302892B09F06A
:103390004BC08091E800877F8093E8008091E8002F
:1033A00080FFFCCF8091180136C080916E0281327F
:1033B000D9F58091720290917302892BA9F58091C1
:1033C000E800877F8093E8000E94091C80917002CA
:1033D000809318010C949B0680916E02813221F536
:1033E0008091E800877F8093E8000E94091C80910B
:1033F000710280934E02089580916E02813AA1F489
:103400008091E800877F8093E8008091E80080FF4A
:10341000FCCF80914E028093F1008091E8008E777E
:103420008093E8000C94091C089584B7877F84BFBB
:103430000FB6F894A8958091600088618093600031
:10344000109260000FBE90E080E80FB6F894809371
:103450006100909361000FBE0C94A2170E945B1C48
:103460000E94B81CE2EEF0E0808184608083789452
:103470000C944D1F8CE091E00C94EC1680916D0241
:103480008530A9F480916D02853079F40E94F3179C
:1034900080916B028823B1F30E94B417882391F3C3
:1034A0000E94B41A0E949B06EDCF0C941E1808953A
:1034B00008950C945B1A292F332723303105C9F066
:1034C00060F42130310581F02230310509F044C02B
:1034D0008BE390E02AEB32E043C021323105E1F08A
:1034E0002232310549F138C082E190E025EF32E027
:1034F00037C099278130910549F028F0029761F58E
:10350000ECE7F2E005C0E6EBF2E002C0E4E9F2E04D
:10351000849190E09F0124C06115710541F06130F4
:103520007105D1F489E090E025EE32E019C089E020
:1035300090E02CEC32E014C06115710541F061306F
:10354000710551F48BE790E027E033E009C080E497
:1035500090E022E833E004C080E090E020E030E03A
:10356000FA0131832083089580E189BD82E189BD1C
:1035700009B400FEFDCF8091D8008F7D8093D800E4
:103580008091E00082608093E0008091E00081FD06
:10359000FCCF0895CF92DF92EF92FF920F931F938B
:1035A000CF93DF93EC018B017A010E94281C8111DB
:1035B00033C0E114F10439F0F70180819181081BD7
:1035C000190BC80FD91FC12CD12C0115110519F1E8
:1035D0008091E80085FD16C08091E8008E77809389
:1035E000E800E114F10449F0F70180819181C80EEF
:1035F000D91ED182C08285E00FC00E94281C88237A
:1036000021F30AC089918093F10001501109FFEF65
:10361000CF1ADF0ADACF80E0DF91CF911F910F91AF
:10362000FF90EF90DF90CF90089520917402309139
:1036300075022617370748F06115710539F4209196
:10364000E8002E772093E80001C0B901FC0120E0DA
:103650006115710579F180916D028823F1F1853052
:10366000F1F18091E80083FD3CC08091E80082FD8B
:103670002EC08091E80080FFEBCF2091F300809175
:10368000F20090E0922B6115710551F088309105A0
:1036900038F421912093F100615071090196F3CF24
:1036A00021E0089709F020E08091E8008E77809370
:1036B000E800CECF2111CFCF0AC080916D028823C0
:1036C00061F0853061F08091E80083FD0AC080914F
:1036D000E80082FFF2CF80E0089582E0089583E061
:1036E000089581E0089520917402309175022617A3
:1036F000370748F06115710539F42091E8002E77FD
:103700002093E80001C0B901FC0120E061157105BA
:1037100091F180916D02882309F440C0853009F44D
:103720003FC08091E80083FD3DC08091E80082FDAC
:103730002FC08091E80080FFE9CF2091F3008091B5
:10374000F20090E0922B6115710559F088309105D7
:1037500040F424912093F100319661507109019653
:10376000F2CF21E0089709F020E08091E8008E7701
:103770008093E800CBCF2111CCCF0AC080916D029D
:10378000882361F0853061F08091E80083FD0AC0F4
:103790008091E80082FFF2CF80E0089582E00895F2
:1037A00083E0089581E00895982F973068F590930D
:1037B000E900981739F07091EC002091ED005091DC
:1037C000F00003C0242F762F50E021FD02C09F5F40
:1037D000ECCF3091EB003E7F3093EB003091ED0069
:1037E0003D7F3093ED003091EB0031603093EB0082
:1037F0007093EC002093ED005093F0002091EE00C8
:1038000027FDE5CF80E008958F708093E90081E087
:10381000089580916E0287FF11C08091E80082FDBB
:1038200005C080916D028111F8CF11C08091E80030
:103830008B770BC080916D02882349F08091E8005E
:1038400080FFF8CF8091E8008E778093E80008959C
:103850002091E4003091E50095E64091EC00842F42
:10386000817040FF23C08091E80080FD1DC08091E1
:103870006D02882399F0853099F08091EB0085FDE9
:1038800011C04091E4005091E5002417350729F359
:10389000915011F09A01E1CF84E0089582E00895FB
:1038A00083E0089581E0089580E008954091E80064
:1038B00042FFDDCF08950E94C91C0E94D11CE0EE9A
:1038C000F0E0808181608083E8EDF0E080818F7797
:1038D000808319BCA7EDB0E08C918E7F8C938081A2
:1038E0008F7E808310926C0208950F931F93CF9365
:1038F000DF930E94C91C0E94D11CC8EDD0E08881D2
:103900008F77888388818068888388818F7D88838A
:1039100019BC10926D021092690210926B02109203
:103920006A0200EE10E0F80180818B7F808388813D
:103930008160888342E060E080E00E94D41BE1EE79
:10394000F0E080818E7F8083E2EEF0E08081816014
:103950008083808188608083F80180818E7F80836E
:10396000888180618883DF91CF911F910F910895A5
:10397000E8EDF0E080818F7E8083E7EDF0E08081EC
:103980008160808384E082BF81E080936C020C942C
:10399000751CE8EDF0E080818E7F80831092E2005C
:1039A00008951092DA001092E10008951F920F928C
:1039B0000FB60F9211242F933F934F935F936F9302
:1039C0007F938F939F93AF93BF93EF93FF938091D8
:1039D000E10082FF0BC08091E20082FF07C080916E
:1039E000E1008B7F8093E1000E944C1F8091DA0000
:1039F00080FF1FC08091D80080FF1BC08091DA003B
:103A00008E7F8093DA008091D90080FF0DC080E125
:103A100089BD82E189BD09B400FEFDCF81E08093BC
:103A20006D020E941E1905C019BC10926D020E9401
:103A30002C198091E10080FF19C08091E20080FF85
:103A400015C08091E2008E7F8093E2008091E200B9
:103A500080618093E2008091D80080628093D800DA
:103A600019BC85E080936D020E9431198091E100BC
:103A700084FF30C08091E20084FF2CC080E189BDCA
:103A800082E189BD09B400FEFDCF8091D8008F7D11
:103A90008093D8008091E1008F7E8093E100809137
:103AA000E2008F7E8093E2008091E200816080934B
:103AB000E20080916902882311F084E007C08091C0
:103AC000E30087FD02C081E001C083E080936D02C6
:103AD0000E9439198091E10083FF29C08091E200A2
:103AE00083FF25C08091E100877F8093E10082E021
:103AF00080936D02109269028091E1008E7F809325
:103B0000E1008091E2008E7F8093E2008091E200EC
:103B100080618093E20042E060E080E00E94D41B7C
:103B20008091F00088608093F0000E942F19FF912F
:103B3000EF91BF91AF919F918F917F916F915F9125
:103B40004F913F912F910F900FBE0F901F9018959E
:103B50001F920F920FB60F9211242F933F934F9302
:103B60005F936F937F938F939F93AF93BF93CF9305
:103B7000DF93EF93FF93C091E900CF708091EC0049
:103B8000D82FD17080FDD0E81092E9008091F0002C
:103B9000877F8093F00078940E94EC1D1092E900DA
:103BA0008091F00088608093F000CD2BCF70C0939F
:103BB000E900FF91EF91DF91CF91BF91AF919F917C
:103BC0008F917F916F915F914F913F912F910F90C6
:103BD0000FBE0F901F9018951F93CF93DF93CDB713
:103BE000DEB7AA970FB6F894DEBF0FBECDBFEEE6E4
:103BF000F2E08091F100819322E0E637F207C9F705
:103C00000E9457198091E80083FF2EC180916E02B7
:103C100090916F02492F50E04A30510508F024C1BD
:103C2000FA01EE59FF4F0C947C1F803821F0823846
:103C300009F01AC108C080916A0290916B02992321
:103C400089F082600FC0809172028F70873008F017
:103C50000BC18093E9008091EB0085FB882780F9F8
:103C60001092E9009091E800977F9093E80080938C
:103C7000F1001092F100D1C0282F2D7F09F0F4C07F
:103C8000882319F0823061F0EFC08091700281309A
:103C900009F0EAC0933009F080E080936B022EC0F7
:103CA0008091700281112AC0809172028F702FEF73
:103CB000280F263008F0D8C08093E9002091EB004F
:103CC00020FF1CC0933021F48091EB00806214C06F
:103CD0009091EB0090619093EB0021E030E0A9011E
:103CE00002C0440F551F8A95E2F74093EA001092F4
:103CF000EA008091EB0088608093EB001092E9006D
:103D00008091E800877F8093E8000E94091CACC086
:103D10008111AAC0109170021F778091E300807812
:103D2000812B8093E3008091E800877F8093E800F7
:103D30000E94091C8091E80080FFFCCF8091E30085
:103D400080688093E300111102C082E001C083E02B
:103D500080936D0289C08058823008F085C08091C0
:103D60007002909171028C3D53E0950779F583E0E4
:103D70008A838AE289834FB7F894DE01139620E0A4
:103D80003EE051E2E32FF0E050935700E49120FF32
:103D900003C0E295EF703F5FEF708E2F90E0EA3046
:103DA00010F0C79601C0C0968D939D932F5F24316C
:103DB00049F74FBF8091E800877F8093E8006AE26F
:103DC00070E0CE0101960E94151B16C06091720230
:103DD00070917302AE014F5F5F4F0E94591ABC0190
:103DE000892B09F441C09091E800977F9093E800F7
:103DF00089819A810E94731B8091E8008B77809360
:103E0000E80032C0803881F58091E800877F809398
:103E1000E800809169028093F1008091E8008E773C
:103E200072CF811121C08091700290917102992707
:103E30000297D4F48091E800877F8093E800809116
:103E40007002809369020E94091C809169028111AD
:103E500006C08091E30087FD02C081E001C084E0DC
:103E600080936D020E9443198091E80083FF0AC08D
:103E70008091E800877F8093E8008091EB0080626A
:103E80008093EB00AA960FB6F894DEBF0FBECDBFAD
:103E9000DF91CF911F9108950895CF9380916D0286
:103EA0008823A1F0C091E900CF709091EC00892F98
:103EB000817090FD80E8C82B1092E9008091E800A5
:103EC00083FD0E94EC1DCF70C093E900CF9108954F
:103ED00097FB072E16F4009407D077FD09D00E94B7
:103EE000821F07FC05D03EF4909581959F4F089561
:103EF000709561957F4F0895EE0FFF1F0590F49127
:103F0000E02D0994AA1BBB1B51E107C0AA1FBB1FD0
:103F1000A617B70710F0A61BB70B881F991F5A9555
:103F2000A9F780959095BC01CD010895FB01DC01B6
:103F300004C08D910190801921F441505040C8F780
:103F4000881B990B0895F999FECF92BD81BDF89A0F
:103F5000992780B50895A8E1B0E042E050E00C94C4
:103F6000D71F262FF999FECF92BD81BDF89A0197F0
:103F700000B4021639F01FBA20BD0FB6F894FA9AB1
:103F8000F99A0FBE08950396272F0E94B21F0E9430
:103F9000B11F252F0E94B21F242F0C94B21F01962F
:103FA000272F0E94B21F0C94B11FDC01CB01FC0132
:103FB000F999FECF06C0F2BDE1BDF89A319600B482
:0E3FC0000D9241505040B8F70895F894FFCF8D
:103FCE00C8000902280850011E0A14019C18BF18C7
:103FDE00A0181A1916199F1801E200E900EA00B597
:103FEE0000B600B700CD008301CC008A0192019487
:103FFE00012102230224022502260227022A02B3ED
:10400E0000B4006F007000818283E200E900EA00D4
:10401E00B500B600B700CD008301CC008A01920135
:10402E0094012102230224022502260227022A02DB
:10403E00B300B4006F007000818283F76766363577
:0E404E00349796949091929395F5F4F1F0F6D4
:00000001FF
